:100000000C94F1030C9417040C9417040C9417042B
:100010000C9417040C9417040C947C070C9417048C
:100020000C9417040C9417040C9417040C941704E4
:100030000C9417040C9417040C9417040C941704D4
:100040000C9417040C9417040C9417040C941704C4
:100050000C9417040C9417040C9417040C941704B4
:100060000C9417040C9417040C9417040C941704A4
:100070000C9417040C9417040C9417040C94170494
:100080000C9417040C9417040C9417040C94170484
:100090000C9417040C9417040C9417040C94170474
:1000A0000C9417040C9417040C9417040C94170464
:1000B0000C9417040C9417040C9417040C94170454
:1000C0000C9417040C9417040C9417040C94170444
:1000D0000C9417040C9417040C9417040C94170434
:1000E0000C9417040C9417040C9417040C94170424
:1000F0000C9417040C9417040C9417040C94170414
:100100000C9417040C9417040C9417040C94170403
:100110000C9417040C9417040C9417040C941704F3
:100120000C9417040C9417040C9417040C941704E3
:100130000C9417040C9417040C9417040C941704D3
:100140000C9417040C9417040C9417040C941704C3
:100150000C9417040C9417040C9417040C941704B3
:100160000C9417040C9417040C9417040C941704A3
:100170000C9417040C9417040C9417040C94170493
:100180000C9417040C9417040C9417040C94170483
:100190000C9417040C9417040C9417040C94170473
:1001A0000C9417040C9417040C9417040C94170463
:1001B0000C9417040C9417040C9417040C94170453
:1001C0000C9417040C9417040C9417040C94170443
:1001D0000C9417040C9417040C9417040C94170433
:1001E0000C9417040C9417040C9417040C94170423
:1001F0000C9417040C9417040C9417045C088308DF
:100200008308830883088308830883082C0834083C
:100210008308400848085008830883088308830837
:100220008308830883088308830883088308830876
:100230008308830883088308830883088308830866
:100240008308830883088308830883088308830856
:100250008308830883088308830883088308830846
:10026000830883088308830874086A0883082908B8
:100270008308830883084C088308830883087E0862
:100280007908540858088308300883083808440857
:100290006F08830865083C0860080C943C080C94BF
:1002A00034080C946A080C9460080C9429080C9487
:1002B00048080C9430080C9438080C9465080C9489
:1002C00040080C944C080C9450080C9458080C945A
:1002D0006F080C942C080C947E080C945C080C9409
:1002E00074080C9444080C9454080C9479080C94E9
:1002F000830833039901CD00660033001A000D0016
:10030000B601DB006D0037001B000E000700B004D3
:1003100058022C0196004B0026001300020408101E
:10032000204080010204081020400102040810202F
:10033000401C001D001F002100230025002700296C
:10034000002C002E003100340037003A003E0041FE
:1003500000450049004E00520057005C00620068F2
:10036000006E0075007B0083008B0093009C00A54D
:1003700000AF00B900C400D000DC00E900F70006BF
:10038000011501260137014A015D01720188019FB3
:1003900001B801D201EE010B022A024B026E029358
:1003A00002BA02E40210033F037003A403DC031744
:1003B0000455049704DD0427057505C80520067D4E
:1003C00006E0064907B8072D08A9082D09B9094D07
:1003D0000AEA0A900B400CFA0CC00D910E6F0F5AEE
:1003E0001000FC10FC20FC30FC40FC50FC60FC7059
:1003F000FC80FC90FCA0FCB0FCC0FCD0FCE0FCF05D
:10040000FC00FD10FD20FD30FD40FD50FD60FD7045
:10041000FD80FD90FDA0FDB0FDC0FDD0FDE0FDF034
:10042000FD00FE10FE20FE30FE40FE50FE60FE701D
:10043000FE80FE90FEA0FEB0FEC0FED0FEE0FEF00C
:10044000FE00FF10FF20FF30FF40FF50FF60FF70F5
:10045000FF80FF90FFA0FFB0FFC0FFD0FFE0FFF0E4
:10046000FF000010002000300040005000600070CD
:100470000080009000A000B000C000D000E000F0BC
:1004800000000110012001300140015001600170A5
:100490000180019001A001B001C001D001E001F094
:1004A000010002100220023002400250026002707D
:1004B0000280029002A002B002C002D002E002F06C
:1004C0000200031003200330034003500360037055
:1004D0000380039003A003B003C003D003E003F044
:1004E000030004F003E003D003C003B003A00390B3
:1004F00003800370036003500340033003200310A4
:10050000030003F002E002D002C002B002A0029099
:10051000028002700260025002400230022002108B
:10052000020002F001E001D001C001B001A0019081
:100530000180017001600150014001300120011073
:10054000010001F000E000D000C000B000A0009069
:10055000008000700060005000400030002000105B
:10056000000000F0FFE0FFD0FFC0FFB0FFA0FF9051
:10057000FF80FF70FF60FF50FF40FF30FF20FF1043
:10058000FF00FFF0FEE0FED0FEC0FEB0FEA0FE9039
:10059000FE80FE70FE60FE50FE40FE30FE20FE102B
:1005A000FE00FEF0FDE0FDD0FDC0FDB0FDA0FD9021
:1005B000FD80FD70FD60FD50FD40FD30FD20FD1013
:1005C000FD00FDF0FCE0FCD0FCC0FCB0FCA0FC9009
:1005D000FC80FC70FC60FC50FC40FC30FC20FC10FB
:1005E000FC0000190032004B0064007D009600AE54
:1005F00000C700E000F80010012901410158017016
:100600000187019E01B501CC01E201F8010E022330
:100610000238024D026102750289029C02AF02C1DA
:1006200002D302E502F6020703170326033603444A
:1006300003530360036D037A03860392039D03A7AC
:1006400003B103BA03C303CB03D303DA03E003E626
:1006500003EB03F003F403F703FA03FC03FE03FFC9
:1006600003FF03FF03FE03FC03FA03F703F403F0A5
:1006700003EB03E603E003DA03D303CB03C303BABC
:1006800003B103A7039D03920386037A036D0360FE
:1006900003530344033603260317030703F602E557
:1006A00002D302C102AF029C028902750261024DAF
:1006B00002380223020E02F801E201CC01B5019ECC
:1006C00001870170015801410129011001F800E082
:1006D00000C700AE0096007D0064004B0032001998
:1006E000000000E6FFCDFFB4FF9BFF82FF69FF51D2
:1006F000FF38FF1FFF07FFEFFED6FEBEFEA7FE8FEF
:10070000FE78FE61FE4AFE33FE1DFE07FEF1FDDCB3
:10071000FDC7FDB2FD9EFD8AFD76FD63FD50FD3EE9
:10072000FD2CFD1AFD09FDF8FCE8FCD9FCC9FCBB59
:10073000FCACFC9FFC92FC85FC79FC6DFC62FC58D7
:10074000FC4EFC45FC3CFC34FC2CFC25FC1FFC193D
:10075000FC14FC0FFC0BFC08FC05FC03FC01FC007A
:10076000FC00FC00FC01FC03FC05FC08FC0BFC0F7E
:10077000FC14FC19FC1FFC25FC2CFC34FC3CFC4547
:10078000FC4EFC58FC62FC6DFC79FC85FC92FC9FE5
:10079000FCACFCBBFCC9FCD9FCE8FCF8FC09FD1A6C
:1007A000FD2CFD3EFD50FD63FD76FD8AFD9EFDB2F4
:1007B000FDC7FDDCFDF1FD07FE1DFE33FE4AFE61B7
:1007C000FE78FE8FFEA7FEBEFED6FEEFFE07FF1FE1
:1007D000FF38FF51FF69FF82FF9BFFB4FFCDFFE6AB
:1007E000FF0011241FBECFEFCDBFDFE3DEBF00E06F
:1007F0000CBF18BE19BE1ABE1BBE10E2A0E0B0E2CC
:10080000EEE2FDE100E00BBF02C007900D92AE32B8
:10081000B107D9F71BBE28E3AEE2B0E201C01D92DA
:10082000AF3FB207E1F70E94CD0C0C94950E0C94EB
:100830000000E0E5F0E080818260808380915100DB
:1008400081FFFCCFE0E5F0E08081846080838091CF
:10085000510082FFFCCFE0E5F0E08681897F86834E
:1008600081E08093600061E080E490E00E948F0E60
:1008700060E081E490E00E948F0E0895E0E0F3E0F4
:1008800082E2818388E182838CE08093B00087E0FC
:100890008093120613828DE080830895E0E0F1E0FA
:1008A00089E5828B8091392090E0982F8827990FD5
:1008B0008A509B4C808F918F128E8AE1848F83E0C7
:1008C000858F168E81E0838B168A80E092E0848B80
:1008D000958B82E0818BA0EAB0E012968C91129702
:1008E000826012968C9380898568808B80E88083F3
:1008F0000895E0E0F1E085E082A386EF98E350EA16
:1009000050A749E041A712A684A795A716A68BE693
:1009100083A316A289E090E084A395A380A1846AB2
:1009200080A380ED82AB60913C202AE239E0629F97
:10093000C001639F900D11248B569F4D80AF91AFE6
:1009400012AE54AF45AF16AE24AB35AB8CE683ABDD
:1009500084E080AB808180688083089590E0982F48
:100960008827990F8A509B4CE0E0F1E0808F918FAF
:10097000128E08952AE239E0482F429FC001439F1A
:10098000900D11248B569F4DE0E0F1E080AF91AFC8
:1009900012AE08950F931F93CF93DF93EC01FB01E9
:1009A0004150542F3BC0309711F454132FC08E0187
:1009B000050F111D57FD1A959F01ADECBCEC0E946F
:1009C000F50D9695879596958795969587959C01B3
:1009D000220F331F880F991F880F991F880F991FA7
:1009E000820F931F9F01281B390BC901805DD8011D
:1009F0008C939F01ADECBCEC0E94F50DFC01F695CB
:100A0000E795F695E795F695E79507C080E2DE0154
:100A1000A50FB11D57FDBA958C93515055231CF667
:100A2000DF91CF911F910F910895DF92EF92FF9286
:100A30000F931F93CF93DF93EC0140E019C09E0109
:100A400082E8489F200D311D112480E006C0F90185
:100A5000E80FF11D90E290838F5F8823C4F7F901BE
:100A6000E058FF4F8DE0808331968AE080834F5FAE
:100A7000423128F380E009C0E82FF0E0E05EF74F54
:100A8000EC0FFD1F9DE290838F5F8823ACF720E081
:100A90000DC0822F90E0FC01EE55F74FEC0FFD1FCB
:100AA000DC01A25EBF4D8C9180832F5F2F3088F3D5
:100AB0008E010E55174FFE01EF54F74F80E38083F0
:100AC000329693E5908331960F2EFAE3DF2EF02DC8
:100AD000D0823196808327E5D80155962C9355977F
:100AE0005696DC92569757969C93579799E458964A
:100AF0009C9358979EE459969C93599796E55B96DC
:100B00009C935B975C96DC925C975D968C935D976B
:100B100081E45F968C935F979096DC920F2EF3E0C2
:100B2000EF2EF0E2FF2EF02DD701EC91F0E0EE0F6A
:100B3000FF1FEE50FD4F6591749144E0C80181960E
:100B40000E94CA0484E4F80186A3D7A2D7011196B3
:100B5000EC91F0E03796EE0FFF1FEE50FD4F6591E0
:100B6000749144E0C80188960E94CA0482E5F801A5
:100B700085A7D6A6D7011296EC91F0E03E96EE0F2F
:100B8000FF1FEE50FD4F6591749144E0C8018F96B0
:100B90000E94CA04FE01EC5DF64F9BE19083319602
:100BA0008BE5808331962AE42083319690833196B9
:100BB0008083C75DD64F88E48883DF91CF911F91F2
:100BC0000F91FF90EF90DF9008958F3F910509F00E
:100BD00070F4E0912E20F0E0FE2FEE27E80FF91FD1
:100BE000EE0FFF1FEA50FB4C808191810895811523
:100BF00022E0920788F4E0912E2021E0E227F0E045
:100C00009A95FE2FEE27E80FF91FEE0FFF1FEA500F
:100C1000FB4C80819181089580E098E0089580E008
:100C200007C0E82FF0E0E45BFB4C97E090838F5F18
:100C30008823BCF785E990E20E9415058FEB99E2C5
:100C40000E9415050895BF92CF92DF92EF92FF9216
:100C50000F931F93CF93DF93209107208AE299E0AF
:100C6000289FE001299FD00D1124CB56DF4D8091A4
:100C70003B208F5F80933B2000E010E010C0C80154
:100C80000E94E5057C010F5F1F4FC8010E94E5052A
:100C9000E11428E0F20618F48115984030F40F3F73
:100CA000110569F360F300E010E040E011C0B2E824
:100CB0004B9F9001112480E008C0F901E80FF11D5D
:100CC000EC0FFD1F90E290838F5F8823B4F74F5F96
:100CD000403168F380E009C0E82FF0E0E05EF74FB4
:100CE000EC0FFD1F9DE290838F5F8823ACF77E01A0
:100CF000EEE5EE1AE7EFFE0A80E006C0F701E80F26
:100D0000F11D90E290838F5F8823C4F720E00BC031
:100D1000822F90E0F701E80FF91FDC01A25EBF4DC2
:100D20008C9180832F5F2F3098F380913720805DE6
:100D3000FE01EF54F74F808383E5329680833AE3D8
:100D40003196308390913B208DEC989F812D11241A
:100D5000869586958695880F282F220F220F820F61
:100D6000981B892F805D3196808387E5D701559642
:100D70008C93559756963C93569780913A208111C3
:100D80000CC083E557968C93579789E458968C93BB
:100D900058978EE459968C9307C084E5F701878BAA
:100DA00082E5808F89E4818F86E5D7015B968C93FD
:100DB0005B978AE35C968C9380913220882311F0B4
:100DC00081E301C080E3F701858F81E4878F0F2ED7
:100DD000FAE3BF2EF02DB0A20F2EF3E0CF2EF0E2FB
:100DE000DF2EF02DD601EC91F0E0EE0FFF1FEE505C
:100DF000FD4F6591749144E0C70181960E94CA0439
:100E000084E4F70186A3B7A2D6011196EC91F0E035
:100E10003796EE0FFF1FEE50FD4F6591749144E041
:100E2000C70188960E94CA0482E5F70185A7B6A685
:100E3000D6011296EC91F0E03E96EE0FFF1FEE50B9
:100E4000FD4F6591749144E0C7018F960E94CA04DA
:100E5000409107202AE239E0429FC001439F900D54
:100E600011248B569F4DFC01EC5DF64F3BE1308326
:100E700031962BE5208331964AE4408331963083C6
:100E800031962083319628E42083D12C1AC0ED2C92
:100E9000F12CC701880F991F800F911F0E94E50553
:100EA0008FE0891BF701B2E88B9FE00DF11D112443
:100EB000EC0FFD1F9AE29083F701E45BFB4C80830B
:100EC000D394DD2024F72FB7F894809107208093E6
:100ED0003C208091072091E08927809307202FBF35
:100EE00090933020DF91CF911F910F91FF90EF9061
:100EF000DF90CF90BF9008951F920F920FB60F9280
:100F0000112408B60F9218BE09B60F9219BE0BB67F
:100F10000F921BBE0F931F932F933F934F935F939B
:100F20006F937F938F939F93AF93BF93CF93EF93E1
:100F3000FF9382E08093470680913920C1E08C279F
:100F40008093392000E011E0F801C38380913920BB
:100F50000E94AE04F80180898068808BC09338209D
:100F6000FF91EF91CF91BF91AF919F918F917F9121
:100F70006F915F914F913F912F911F910F910F9022
:100F80000BBE0F9009BE0F9008BE0F900FBE0F90C2
:100F90001F901895CF93DF93833741F490913A20B7
:100FA00081E0892780933A208FEFAEC0813641F4EB
:100FB0009091322081E08927809332208FEFA4C066
:100FC0004FEC480F4330C0F550E0EA01CD5FDF4DF4
:100FD000E881F0E031969F01A3E9B4E20E94F50DAB
:100FE000281B390B36952795820F931F9695879569
:100FF000969587959C01220F331F220F331F220FD6
:10100000331FB901681B790B9F01261B370B2883FF
:10101000FA01EE0FFF1FEE0FFF1FEE0FFF1FE41B85
:10102000F50BE20FF11DE45EFC4FE491DA01A050F4
:10103000B04EEC938FEF68C090E0FC01BC97EF34AA
:10104000F10508F060C08827E250FF4F8F4F0C94E5
:10105000EC0D8091062058C0809106208F5F54C00F
:10106000809106208E5F50C0809106208D5F4CC01D
:10107000809106208C5F48C0809106208B5F44C021
:10108000809106208A5F40C080910620895F3CC025
:1010900080910620885F38C080910620875F34C029
:1010A00080910620865F30C080910620855F2CC02D
:1010B00080910620845F28C0109206208FEF24C004
:1010C00083E0809306208FEF1FC08FE0809306207F
:1010D0008FEF1AC08BE1809306208FEF15C087E257
:1010E000809306208FEF10C083E3809306208FEF5C
:1010F0000BC08FE3809306208FEF06C08BE48093B4
:1011000006208FEF01C08FEFDF91CF9108950F93ED
:101110001F93CF93DF9320E011C0822F90E0880FC0
:10112000991FFC01EE0FFF1FEE0FFF1FEE0FFF1FB9
:10113000E81BF90BE453FB4C14862F5F233068F354
:10114000C0E0D0E0E7C0FE01EA50F74C8081882380
:1011500009F4DFC00E94CA07FE01EA50F74C108272
:1011600088230CF4D6C0482F082E000C550BFA012A
:10117000E35CFF4D20812223C4F1022E000C330BCF
:10118000B901660F771FFB01EE0FFF1FEE0FFF1F68
:10119000EE0FFF1FE61BF70BE453FB4C90819430DE
:1011A000F9F0FB01EE0FFF1FEE0FFF1FEE0FFF1F09
:1011B000E61BF70BE453FB4C81E0848786E08587D0
:1011C000933009F0A6C0FB01EE0FFF1FEE0FFF1FCB
:1011D000EE0FFF1FE61BF70BE453FB4C108299C088
:1011E0009FEFFA01E35CFF4D908390E0AFEFBFEF1C
:1011F0001FEF2AC0292F30E0B901660F771FFB01CE
:10120000EE0FFF1FEE0FFF1FEE0FFF1FE61BF70B8A
:10121000E453FB4C60816430D1F06330A1F4220FC1
:10122000331FF901EE0FFF1FEE0FFF1FEE0FFF1F21
:10123000E21BF30BE453FB4C22853385A217B30763
:1012400010F0192FD9019F5F9330A0F29FEF9923DF
:1012500024F411230CF45DC0912F292F092E000CCA
:10126000330BB901660F771FFB01EE0FFF1FEE0F67
:10127000FF1FEE0FFF1FE61BF70BE453FB4C6081D3
:101280006430D9F0B901660F771FFB01EE0FFF1F25
:10129000EE0FFF1FEE0FFF1FE61BF70BE453FB4C97
:1012A000618170E0FB01E35CFF4DE0819E1305C0AE
:1012B000DB01A35CBF4DEFEFEC93220F331FF9016D
:1012C000EE0FFF1FEE0FFF1FEE0FFF1FE21BF30BD2
:1012D000E453FB4C108212861386818312821382A0
:1012E00014821582DA01AA0FBB1FAA0FBB1FA451DB
:1012F000BD4C0D911D912D913C9106831783208744
:10130000318781E0848786E08587FA01E35CFF4DC1
:1013100090832196C930D10508F415CF30E064C020
:10132000832F90E0AC01440F551FFA01EE0FFF1F11
:10133000EE0FFF1FEE0FFF1FE41BF50BE453FB4CFA
:1013400020812350223008F44EC0AC01440F551FB9
:10135000FA01EE0FFF1FEE0FFF1FEE0FFF1FE41B42
:10136000F50BE453FB4C248521111FC0AC01440F45
:10137000551FFA01EE0FFF1FEE0FFF1FEE0FFF1FAD
:10138000E41BF50BE453FB4C2585222371F0FA0195
:10139000EE0FFF1FEE0FFF1FEE0FFF1FE41BF50BFD
:1013A000E453FB4C215025871EC0AC01440F551F50
:1013B000FA01EE0FFF1FEE0FFF1FEE0FFF1FE41BE2
:1013C000F50BE453FB4C258521110DC0FA01EE0FFE
:1013D000FF1FEE0FFF1FEE0FFF1FE41BF50BE45383
:1013E000FB4C83E080833F5F333008F499CFDF917B
:1013F000CF911F910F9108952F923F924F925F923C
:101400006F927F928F929F92AF92BF92CF92DF9214
:10141000EF92FF920F931F93CF93DF93CDB7DEB779
:101420002C97CDBFDEBF1C011092372080E01DC07D
:10143000282F30E0220F331FF901EE0FFF1FEE0FB0
:10144000FF1FEE0FFF1FE21BF30BE453FB4C9081D9
:10145000943051F0E091372091E09E0F9093372027
:10146000F0E0E751FD4C80838F5F833008F3F0900C
:101470003720FF2061F012C0FC01EE0FFF1FE20DCC
:10148000F31D20E038E020833183019602C080E024
:1014900090E08F3F910581F378F369C2E0913A20A3
:1014A000F0E0EE0FFF1FE65EFF4D00811181EF2D92
:1014B000F0E0EE0FFF1FE85FFF4D4080518080910C
:1014C0003220882309F492C08091332090913420F7
:1014D000A0913520B09136208E52924BAD49BF4E2F
:1014E0008093332090933420A0933520B0933620FE
:1014F000EB2FF0E0EE0FFF1FEF51FA4F8591949123
:10150000A82EB92EE12C46C0EE2DF0E0DF01A75148
:10151000BD4C8C9190E0880F991FDC01AA0FBB1F76
:10152000AA0FBB1FAA0FBB1FA81BB90BA453BB4C10
:1015300016966D907D908D909C901997A4019301C3
:10154000012E1AE056954795379527951A95D1F7AC
:10155000102DAA2DBB2D0E94040EDC01CB01689436
:1015600016F8B595A795979587951694D1F7860D9A
:10157000971DA81DB91DEE0FFF1FEE0FFF1F21E0E5
:1015800030E02C0F3D1FE20FF31F80839183A28375
:10159000B383E394EF1408F4B7CF2BC0842F90E00B
:1015A000FC01E751FD4C208130E0220F331FF9018F
:1015B000EE0FFF1FEE0FFF1FEE0FFF1FE21BF30BDF
:1015C000E453FB4C86809780A084B184880F991FD8
:1015D000880F991FE1E0F0E0EC0FFD1FE80FF91F05
:1015E00080829182A282B3824F5F01C040E04F159A
:1015F000A8F2612C712CB6C1432F50E0FA01E751DB
:10160000FD4C808190E0FC01EE0FFF1FBF01660FD3
:10161000771F660F771F660F771F6E1B7F0BFB010F
:10162000E453FB4C2081213009F44EC038F02230C5
:1016300009F401C1233009F4A4C062C12091002043
:10164000BC01660F771FFB01EE0FFF1FEE0FFF1FA0
:10165000EE0FFF1FE61BF70BE453FB4C628573850F
:10166000620F711D62877387603F7F47A8F0FC019E
:10167000EE0FFF1FBF01660F771F660F771F660F04
:10168000771F6E1B7F0BFB01E453FB4C60EF7FE782
:101690006287738721E02083FC01EE0FFF1FBF01EB
:1016A000660F771F660F771F660F771F6E1B7F0B06
:1016B000FB01E453FB4C62857385729562956F70F4
:1016C00067277F706727B9C0FC01EE0FFF1FBF01BE
:1016D000660F771F660F771F660F771F6E1B7F0BD6
:1016E000FB01E453FB4C0284F385E02D6091012063
:1016F00070E0DB01A054B24AAE17BF07A8F47C012A
:10170000EE0CFF1CD701AA0FBB1FAA0FBB1FAA0F0D
:10171000BB1FAE19BF09A453BB4CE61BF70B1A96AF
:10172000ED93FC931B9715C0FC01EE0FFF1FBF014B
:10173000660F771F660F771F660F771F6E1B7F0B75
:10174000FB01E453FB4C60EC7DE56287738722E08C
:101750002083FC01EE0FFF1FBF01660F771F660F8E
:10176000771F660F771F6E1B7F0BFB01E453FB4C4B
:1017700062857385729562956F7067277F706727A2
:101780005CC0FC01EE0FFF1FBF01660F771F660FE5
:10179000771F660F771F6E1B7F0BFB01E453FB4C1B
:1017A00062857385E0900220F12CE616F70698F426
:1017B000DC01AA0FBB1FFD01EE0FFF1FEE0FFF1F85
:1017C000EE0FFF1FEA1BFB0BE453FB4C6E197F0966
:1017D0006287738718C0BC01660F771FFB01EE0F8D
:1017E000FF1FEE0FFF1FEE0FFF1FE61BF70BE4536B
:1017F000FB4C12861386A181B0E0A35CBF4D2FEF96
:101800002C9324E02083FC01EE0FFF1FBF01660F25
:10181000771F660F771F660F771F6E1B7F0BFB010D
:10182000E453FB4C62857385729562956F706727F0
:101830007F70672702C06CED75E0440F551F440FA1
:10184000551FE1E0F0E0EC0FFD1FE40FF51FC08035
:10185000D180E280F380880F991FAC01440F551F9F
:10186000440F551F440F551F481B590BFA01E453F1
:10187000FB4C82819381A481B5818C0D9D1DAE1D91
:10188000BF1D82839383A483B583EB2FF0E0EE0F1B
:10189000FF1FE00FF11F85919491AC01992334F45F
:1018A00044275527481B590B21E001C020E0469FE3
:1018B000802D912DAA27BB27479F900DA11D569FD4
:1018C000900DA11D1124B11D579FA00DB11D892F91
:1018D0009A2FAB2FBB27A795979587958894A795A7
:1018E000979587951124222339F0B095A09590956E
:1018F00081959F4FAF4FBF4F880E991EAA1EBB1EEA
:101900003F5F04C030E0812C912C5401809137203E
:10191000381708F471CED201A50194010E94040E7B
:10192000BB2797FDBA95A92F982F872F985FAF4FA8
:10193000BF4FBB231CF480E090E0DC01811530E157
:101940009307A105B10524F08FEF9FE0A0E0B0E080
:10195000F301EE0FFF1FE20DF31D808391838FEFE4
:10196000681A780A2FEF6216710461F258F22C9609
:10197000CDBFDEBFDF91CF911F910F91FF90EF9010
:10198000DF90CF90BF90AF909F908F907F906F909F
:101990005F904F903F902F9008950E9419040E94ED
:1019A0003E04C0E0D0E02EC0FE01EE0FFF1FEF5C52
:1019B000FC4F459154914A01242F392D40E050E0CD
:1019C00060E070E080E090E000E20E946B0E6894BE
:1019D000AA24A5F80F2EFEE4BF2EF02DC12CD12C89
:1019E000E12CF12C00E010E00E940E0EFE01EE0F43
:1019F000FF1FEE0FFF1FE451FD4C20833183428314
:101A000053832196C835D10578F20E940F0680E0F5
:101A10001FC0282F30E0220F331FF901EE0FFF1FE8
:101A2000EE0FFF1FEE0FFF1FE21BF30BE453FB4C07
:101A300094E090831182128213821482158216829E
:101A400017821086118612861386148615868F5F7C
:101A50008330F8F240E017C0E42FF0E0FE2FEE27CD
:101A6000E80FF91FEE0FFF1FEA50FB4C20E038E0B3
:101A700020833183019602C080E090E08F3F910582
:101A800059F350F34F5F4230B8F380E006C0E82FBF
:101A9000F0E0EA50F74C10828F5F8930C0F380E0AD
:101AA00007C0E82FF0E0E35CFF4D9FEF90838F5F6E
:101AB0008835B8F321E041E060E080E496E00E94E0
:101AC000C90D81E180930C080E9479040E94D80D11
:101AD00078940E944E04E0E4F6E08FE1818380E890
:101AE000818385838091030182FF05C0109231209C
:101AF00084E08093030180913820882371F1109253
:101B00003820C0E4D6E089E08D830E94870888E011
:101B10008E838091392080932E2014E01D83909134
:101B20002E2081E0892790E0982F8827990F8A50EE
:101B30009B4C0E94FC091E8380912F208F5F809315
:101B40002F20843038F010922F2010E11D830E9446
:101B500023061E8381E080934606809130208823EF
:101B600009F2809131208111BDCF81E08093312035
:101B700010923020C0E0D1E084E08B838AE299E0CB
:101B80008CAB9DAB80913C200E94BA0484E888AB6A
:101B9000A9CFE0E0F8E03CE03187019786A397A366
:101BA00061834083222319F080EC809380010895A3
:101BB000E0E6F6E088E08583818384E08283E0EAE2
:101BC000F9E081E08683178283E08583808180E469
:101BD00081838CE184830895EE0FFF1F881F8BBFE4
:101BE0000790F691E02D1BBE1994A29FB001B39F00
:101BF000C001A39F700D811D1124911DB29F700D16
:101C0000811D1124911D0895B7FF0C94840E0E942C
:101C1000840E821B930B0895689401C0E8948F9200
:101C20009F92CF93DF930E941A0EDF91CF919F90E6
:101C30008F90089588249924F401E401B0E49F93DF
:101C4000AA279A158B049C04ED05FE05CF05D00745
:101C5000A10798F4AD2FDC2FCF2FFE2FE92D982C64
:101C6000892E982F872F762F652F542F432F322FB1
:101C70002227B85031F7BF9127C01B2EBF91BB2739
:101C8000220F331F441F551F661F771F881F991F80
:101C9000881C991CEE1FFF1FCC1FDD1FAA1FBB1F36
:101CA0008A149B04EC05FD05CE05DF05A007B107EE
:101CB00048F08A189B08EC09FD09CE09DF09A00B42
:101CC000B10B21601A94E1F62EF49401AF01BE012C
:101CD000CD01000C08950F93083090F0982F872FB6
:101CE000762F652F542F432F322F22270850F4CF01
:101CF000220F331F441F551F661F771F881F991F10
:101D00000A95B2F70F9108950E94F50DA59F900DC9
:101D1000B49F900DA49F800D911D11240895DC01A6
:0E1D200028ED209334006C930895F894FFCFC3
:101D2E0010020403010203010000000180005500AF
:101D3E00400033002B0025002000E105E103416344
:0E1D4E007469766520566F696365733A2000EC
:00000001FF
