:100000000C94D1030C94F7030C94F7030C94F703AE
:100010000C94F7030C94F7030C94F6050C94F70377
:100020000C94F7030C94F7030C94F7030C94F70368
:100030000C94F7030C94F7030C94F7030C94F70358
:100040000C94F7030C94F7030C94F7030C94F70348
:100050000C94F7030C94F7030C94F7030C94F70338
:100060000C94F7030C94F7030C94F7030C94F70328
:100070000C94F7030C94F7030C94F7030C94F70318
:100080000C94F7030C94F7030C94F7030C94F70308
:100090000C94F7030C94F7030C94F7030C94F703F8
:1000A0000C94F7030C94F7030C94F7030C94F703E8
:1000B0000C94F7030C94F7030C94F7030C94F703D8
:1000C0000C94F7030C94F7030C94F7030C94F703C8
:1000D0000C94F7030C94F7030C94F7030C94F703B8
:1000E0000C94F7030C94F7030C94F7030C94F703A8
:1000F0000C94F7030C94F7030C94F7030C94F70398
:100100000C94F7030C94F7030C94F7030C94F70387
:100110000C94F7030C94F7030C94F7030C94F70377
:100120000C94F7030C94F7030C94F7030C94F70367
:100130000C94F7030C94F7030C94F7030C94F70357
:100140000C94F7030C94F7030C94F7030C94F70347
:100150000C94F7030C94F7030C94F7030C94F70337
:100160000C94F7030C94F7030C94F7030C94F70327
:100170000C94F7030C94F7030C94F7030C94F70317
:100180000C94F7030C94F7030C94F7030C94F70307
:100190000C94F7030C94F7030C94F7030C94F703F7
:1001A0000C94F7030C94F7030C94F7030C94F703E7
:1001B0000C94F7030C94F7030C94F7030C94F703D7
:1001C0000C94F7030C94F7030C94F7030C94F703C7
:1001D0000C94F7030C94F7030C94F7030C94F703B7
:1001E0000C94F7030C94F7030C94F7030C94F703A7
:1001F0000C94F7030C94F7030C94F7038E06B506E2
:10020000B506B506B506B506B506B5065E066606BC
:10021000B50672067A068206B506B506B506B506B7
:10022000B506B506B506B506B506B506B506B506F6
:10023000B506B506B506B506B506B506B506B506E6
:10024000B506B506B506B506B506B506B506B506D6
:10025000B506B506B506B506B506B506B506B506C6
:10026000B506B506B506B506A6069C06B5065B0638
:10027000B506B506B5067E06B506B506B506B006E2
:10028000AB0686068A06B5066206B5066A067606D7
:10029000A106B50697066E0692060C946E060C949F
:1002A00082060C947E060C9466060C945B060C94F5
:1002B00086060C9472060C94B0060C949C060C9462
:1002C000A1060C946A060C9492060C948E060C946B
:1002D00097060C948A060C94AB060C9462060C9458
:1002E00076060C947A060C94A6060C945E060C9482
:1002F000B5061C001D001F0021002300250027005B
:1003000029002C002E003100340037003A003E0056
:100310004100450049004E00520057005C00620059
:1003200068006E0075007B0083008B0093009C00CA
:10033000A500AF00B900C400D000DC00E900F70060
:1003400006011501260137014A015D01720188018C
:100350009F01B801D201EE010B022A024B026E028C
:100360009302BA02E40210033F037003A403DC0308
:10037000170455049704DD0427057505C8052006F4
:100380007D06E0064907B8072D08A9082D09B90917
:100390004D0AEA0A900B400CFA0CC00D910E6F0F3B
:1003A0005A1000FC10FC20FC30FC40FC50FC60FCAF
:1003B00070FC80FC90FCA0FCB0FCC0FCD0FCE0FC1D
:1003C000F0FC00FD10FD20FD30FD40FD50FD60FD06
:1003D00070FD80FD90FDA0FDB0FDC0FDD0FDE0FDF5
:1003E000F0FD00FE10FE20FE30FE40FE50FE60FEDE
:1003F00070FE80FE90FEA0FEB0FEC0FED0FEE0FECD
:10040000F0FE00FF10FF20FF30FF40FF50FF60FFB5
:1004100070FF80FF90FFA0FFB0FFC0FFD0FFE0FFA4
:10042000F0FF00001000200030004000500060008D
:10043000700080009000A000B000C000D000E0007C
:10044000F000000110012001300140015001600165
:10045000700180019001A001B001C001D001E00154
:10046000F00100021002200230024002500260023D
:10047000700280029002A002B002C002D002E0022C
:10048000F002000310032003300340035003600315
:10049000700380039003A003B003C003D003E00304
:1004A000F0030004F003E003D003C003B003A00393
:1004B0009003800370036003500340033003200364
:1004C00010030003F002E002D002C002B002A0025A
:1004D000900280027002600250024002300220024C
:1004E00010020002F001E001D001C001B001A00142
:1004F0009001800170016001500140013001200134
:1005000010010001F000E000D000C000B000A00029
:10051000900080007000600050004000300020001B
:1005200010000000F0FFE0FFD0FFC0FFB0FFA0FF11
:1005300090FF80FF70FF60FF50FF40FF30FF20FF03
:1005400010FF00FFF0FEE0FED0FEC0FEB0FEA0FEF9
:1005500090FE80FE70FE60FE50FE40FE30FE20FEEB
:1005600010FE00FEF0FDE0FDD0FDC0FDB0FDA0FDE1
:1005700090FD80FD70FD60FD50FD40FD30FD20FDD3
:1005800010FD00FDF0FCE0FCD0FCC0FCB0FCA0FCC9
:1005900090FC80FC70FC60FC50FC40FC30FC20FCBB
:1005A00010FC0000190032004B0064007D00960032
:1005B000AE00C700E000F800100129014101580118
:1005C000700187019E01B501CC01E201F8010E0224
:1005D000230238024D026102750289029C02AF02B9
:1005E000C102D302E502F60207031703260336030E
:1005F0004403530360036D037A03860392039D0350
:10060000A703B103BA03C303CB03D303DA03E003A5
:10061000E603EB03F003F403F703FA03FC03FE0322
:10062000FF03FF03FF03FE03FC03FA03F703F403D6
:10063000F003EB03E603E003DA03D303CB03C303C6
:10064000BA03B103A7039D03920386037A036D03E4
:100650006003530344033603260317030703F6021C
:10066000E502D302C102AF029C0289027502610257
:100670004D02380223020E02F801E201CC01B5015D
:100680009E01870170015801410129011001F80004
:10069000E000C700AE0096007D0064004B00320011
:1006A00019000000E6FFCDFFB4FF9BFF82FF69FF4A
:1006B00051FF38FF1FFF07FFEFFED6FEBEFEA7FE6D
:1006C0008FFE78FE61FE4AFE33FE1DFE07FEF1FD41
:1006D000DCFDC7FDB2FD9EFD8AFD76FD63FD50FD8C
:1006E0003EFD2CFD1AFD09FDF8FCE8FCD9FCC9FC17
:1006F000BBFCACFC9FFC92FC85FC79FC6DFC62FCB5
:1007000058FC4EFC45FC3CFC34FC2CFC25FC1FFC3E
:1007100019FC14FC0FFC0BFC08FC05FC03FC01FCA1
:1007200000FC00FC00FC01FC03FC05FC08FC0BFCCD
:100730000FFC14FC19FC1FFC25FC2CFC34FC3CFCBD
:1007400045FC4EFC58FC62FC6DFC79FC85FC92FC7F
:100750009FFCACFCBBFCC9FCD9FCE8FCF8FC09FD27
:100760001AFD2CFD3EFD50FD63FD76FD8AFD9EFDCC
:10077000B2FDC7FDDCFDF1FD07FE1DFE33FE4AFEA6
:1007800061FE78FE8FFEA7FEBEFED6FEEFFE07FFDF
:100790001FFF38FF51FF69FF82FF9BFFB4FFCDFFB2
:1007A000E6FF11241FBECFEFCDBFDFE3DEBF00E0C9
:1007B0000CBF18BE19BE1ABE1BBE10E2A0E0B0E20C
:1007C000ECE0F8E100E00BBF02C007900D92AA3206
:1007D000B107D9F71BBE2BE3AAE2B0E201C01D921C
:1007E000A037B207E1F70E94180A0C94040C0C948D
:1007F0000000E0E5F0E0808182608083809151001C
:1008000081FFFCCFE0E5F0E080818460808380910F
:10081000510082FFFCCFE0E5F0E08681897F86838E
:1008200081E08093600061E080E490E00E94FE0B34
:1008300060E081E490E00E94FE0B0895E0E0F3E0C8
:1008400082E2818388E182838CE08093B00087E03C
:100850008093120613828DE080830895E0E0F1E03A
:1008600089E5828B8091302090E0982F8827990F1E
:100870008959984C808F918F128E8AE1848F83E002
:10088000858F168E81E0838B168A80E092E0848BC0
:10089000958B82E0818BA0EAB0E012968C91129742
:1008A000826012968C9380898568808B80E8808333
:1008B0000895E0E0F1E085E082A387E69BE350EA5B
:1008C00050A749E041A712A684A795A716A68BE6D4
:1008D00083A316A289E090E084A395A380A1846AF3
:1008E00080A380ED82AB6091332027E239E0629FE4
:1008F000C001639F900D112484579F4D80AF91AF2D
:1009000012AE54AF45AF16AE24AB35AB8CE683AB1D
:1009100084E080AB808180688083089590E0982F88
:100920008827990F8959984CE0E0F1E0808F918FEA
:10093000128E089527E239E0482F429FC001439F5D
:10094000900D112484579F4DE0E0F1E080AF91AF0E
:1009500012AE0895BC0130E019C0AB0182E8389FA7
:10096000400D511D112490E006C0FA01E90FF11D60
:1009700020E220839F5F9923C4F7FA01E058FF4FDC
:100980008DE0808331968AE080833F5F323128F3A7
:1009900080E009C0E82FF0E0E05EF74FE60FF71FB8
:1009A0009DE290838F5F8823ACF780E00DC0282FF5
:1009B00030E0F901EE55F74FE60FF71FD901A65EBB
:1009C000BF4D9C9190838F5F8F3088F3FB01EF5474
:1009D000F74F80E38083329693E5908331969AE3D4
:1009E000908331968083E159FF4F8BE1808331966C
:1009F0008BE58083319688E4808308958F3F91054D
:100A000009F070F4E0912A20F0E0FE2FEE27E80FC5
:100A1000F91FEE0FFF1FE959F84C8081918108956D
:100A2000811522E0920788F4E0912A2021E0E22754
:100A3000F0E09A95FE2FEE27E80FF91FEE0FFF1F4B
:100A4000E959F84C80819181089580E098E00895FB
:100A500080E007C0E82FF0E0E35CF94C97E090837A
:100A60008F5F8823BCF78CE890E20E94AA0483EB96
:100A700099E20E94AA040895FF920F931F93CF93C7
:100A8000DF932091012087E299E0289FE001299FD0
:100A9000D00D1124C457DF4D809132208F5F809399
:100AA000322040E011C082E8489F9001112480E08C
:100AB00008C0F901E80FF11DEC0FFD1F90E29083D3
:100AC0008F5F8823B4F74F5F403168F380E009C03F
:100AD000E82FF0E0E05EF74FEC0FFD1F9DE2908302
:100AE0008F5F8823ACF79E012E55374F80E006C0FC
:100AF000F901E80FF11D90E290838F5F8823C4F71E
:100B000040E00BC0842F90E0F901E80FF91FDC01F1
:100B1000A65EBF4D8C9180834F5F4F3098F38091DC
:100B20002E20805DFE01EF54F74F808383E53296DF
:100B300080838AE331968083909132208DEC989F58
:100B4000812D1124869586958695880F282F220F52
:100B5000220F820F981B892F805D319680834091F0
:100B6000012027E239E0429FC001439F900D1124EC
:100B700084579F4DFC01EC5DF64F2BE120833196AD
:100B80002BE52083319628E42083F12C18C00F2D0B
:100B900010E0C801880F991F0E94FE048FE0891B96
:100BA000F80192E8899FE00DF11D1124EC0FFD1F63
:100BB0009AE29083F801E35CF94C8083F394FF2080
:100BC00034F72FB7F89480910120809333208091DF
:100BD000012091E08927809301202FBF90932C2042
:100BE000DF91CF911F910F91FF9008951F920F9267
:100BF0000FB60F92112408B60F9218BE09B60F92C5
:100C000019BE0BB60F921BBE0F931F932F933F93EA
:100C10004F935F936F937F938F939F93AF93BF9304
:100C2000CF93EF93FF9382E080934706809130202B
:100C3000C1E08C278093302000E011E0F801C383ED
:100C4000809130200E948E04F80180898068808B1A
:100C5000C0932F20FF91EF91CF91BF91AF919F91C2
:100C60008F917F916F915F914F913F912F911F9144
:100C70000F910F900BBE0F9009BE0F9008BE0F9002
:100C80000FBE0F901F901895833741F4909131203B
:100C900081E08927809331208FEF089590E0FC0157
:100CA000BC97EF34F10508F060C08827E250FF4F91
:100CB0008F4F0C945B0B8091002008958091002051
:100CC0008F5F0895809100208E5F089580910020AD
:100CD0008D5F0895809100208C5F089580910020A1
:100CE0008B5F0895809100208A5F08958091002095
:100CF000895F089580910020885F08958091002089
:100D0000875F089580910020865F0895809100207C
:100D1000855F089580910020845F089510920020DF
:100D20008FEF089583E0809300208FEF08958FE088
:100D3000809300208FEF08958BE1809300208FEF48
:100D4000089587E2809300208FEF089583E38093D6
:100D500000208FEF08958FE3809300208FEF089598
:100D60008BE4809300208FEF08958FEF08950F9309
:100D70001F93CF93DF9320E011C0822F90E0880F64
:100D8000991FFC01EE0FFF1FEE0FFF1FEE0FFF1F5D
:100D9000E81BF90BE35CF84C14862F5F233068F3F3
:100DA000C0E0D0E0E9C0FE01E959F44C808188231D
:100DB00009F4E1C00E944406FE01E959F44C108296
:100DC00088230CF4D8C0482F082E000C550BFA01CC
:100DD000EC5CFF4D20812223D4F1022E000C330B5A
:100DE000B901660F771FFB01EE0FFF1FEE0FFF1F0C
:100DF000EE0FFF1FE61BF70BE35CF84C908193307E
:100E000009F1FB01EE0FFF1FEE0FFF1FEE0FFF1F9B
:100E1000E61BF70BE35CF84C81E0848786E085876E
:100E2000923009F0A8C0FB01EE0FFF1FEE0FFF1F6D
:100E3000EE0FFF1FE61BF70BE35CF84C10821286E7
:100E4000138699C09FEFFA01EC5CFF4D908390E010
:100E5000A0E0B0E01FEF2AC0292F30E0B901660FF3
:100E6000771FFB01EE0FFF1FEE0FFF1FEE0FFF1F9F
:100E7000E61BF70BE35CF84C60816330D1F0623025
:100E8000A1F4220F331FF901EE0FFF1FEE0FFF1F1A
:100E9000EE0FFF1FE21BF30BE35CF84C228533855A
:100EA0002A173B0710F0192FD9019F5F9330A0F24A
:100EB0009FEF992324F411230CF45DC0912F292F67
:100EC000092E000C330BB901660F771FFB01EE0FE3
:100ED000FF1FEE0FFF1FEE0FFF1FE61BF70BE35C7C
:100EE000F84C60816330D9F0B901660F771FFB01C0
:100EF000EE0FFF1FEE0FFF1FEE0FFF1FE61BF70B9E
:100F0000E35CF84C618170E0FB01EC5CFF4DE0813B
:100F10009E1305C0DB01AC5CBF4DEFEFEC93220FDD
:100F2000331FF901EE0FFF1FEE0FFF1FEE0FFF1F24
:100F3000E21BF30BE35CF84C10821286138681836C
:100F40001282138214821582DA01AA0FBB1FAA0F24
:100F5000BB1FA352BD4C0D911D912D913C91068359
:100F600017832087318781E0848786E08587FA01AF
:100F7000EC5CFF4D90832196C930D10508F413CF66
:100F800030E066C0832F90E0AC01440F551FFA019A
:100F9000EE0FFF1FEE0FFF1FEE0FFF1FE41BF50B01
:100FA000E35CF84C20812250223008F450C0AC01A0
:100FB000440F551FFA01EE0FFF1FEE0FFF1FEE0F3C
:100FC000FF1FE41BF50BE35CF84C248521111FC0C7
:100FD000AC01440F551FFA01EE0FFF1FEE0FFF1F6C
:100FE000EE0FFF1FE41BF50BE35CF84C2585222375
:100FF00071F0FA01EE0FFF1FEE0FFF1FEE0FFF1F44
:10100000E41BF50BE35CF84C2150258720C0AC01B4
:10101000440F551FFA01EE0FFF1FEE0FFF1FEE0FDB
:10102000FF1FE41BF50BE35CF84C258521110FC075
:10103000FA01EE0FFF1FEE0FFF1FEE0FFF1FE41B65
:10104000F50BE35CF84C82E08083128613863F5FE9
:10105000333008F497CFDF91CF911F910F9108950E
:101060004F925F926F927F928F929F92AF92BF92B8
:10107000CF92DF92EF92FF920F931F93CF93DF9364
:101080007C0110922E2080E01DC0282F30E0220F1E
:10109000331FF901EE0FFF1FEE0FFF1FEE0FFF1FB3
:1010A000E21BF30BE35CF84C9081933051F0E0913C
:1010B0002E2091E09E0F90932E20F0E0E652FD4C02
:1010C00080838F5F833008F3E0912E20EE2361F060
:1010D00012C0FC01EE0FFF1FEE0DFF1D20E038E0F7
:1010E00020833183019602C080E090E08F3F91051C
:1010F00081F378F325C1A0913120B0E0AA0FBB1F86
:10110000AA5EBF4DCD91DC91F0E0EE0FFF1FEC5FCA
:10111000FF4DC080D18000E010E00EC1E32FF0E071
:10112000E652FD4C808190E0AC01440F551FFA015E
:10113000EE0FFF1FEE0FFF1FEE0FFF1FE41BF50B5F
:10114000E35CF84C2081213009F46BC0D0F12230EF
:1011500009F0C1C0AC01440F551FFA01EE0FFF1F8B
:10116000EE0FFF1FEE0FFF1FE41BF50BE35CF84CC7
:1011700062857385DB01AA0FBB1FA35CBB4C4D913D
:101180005C916F5F7F4F628773876F3F710509F0D6
:1011900008F449C0BC01660F771FFB01EE0FFF1F6B
:1011A000EE0FFF1FEE0FFF1FE61BF70BE35CF84C83
:1011B000A181B0E0AC5CBF4D2FEF2C9323E02083E6
:1011C00032C0AC01440F551FFA01EE0FFF1FEE0FA6
:1011D000FF1FEE0FFF1FE41BF50BE35CF84C62856D
:1011E0007385DB01AA0FBB1FA354B94C4D915C91D1
:1011F0006F5F7F4F6287738760347105A0F0FC01D9
:10120000EE0FFF1FBF01660F771F660F771F660F78
:10121000771F6E1B7F0BFB01E35CF84C21E0208302
:1012200002C04CED55E0880F991FFC01EE0FFF1F27
:10123000EE0FFF1FEE0FFF1FE81BF90BE35CF84CEE
:10124000468057806084718482819381A481B581B6
:10125000840D951DA61DB71D82839383A483B5833A
:10126000EB2FF0E0EE0FFF1FEC0FFD1F8591949127
:10127000BC01992334F466277727681B790B21E09A
:1012800001C020E0649F802D912DAA27BB27659F78
:10129000900DA11D749F900DA11D1124B11D759F6E
:1012A000A00DB11D892F9A2FAB2FBB27A79597951E
:1012B00087958894A795979587951124222339F0CF
:1012C000B095A095909581959F4FAF4FBF4F880ED9
:1012D000991EAA1EBB1E3F5F04C030E0812C912CDA
:1012E000540180912E20381708F418CFD601A5019B
:1012F00094010E947E0BBB2797FDBA95A92F982FCA
:10130000872F985FAF4FBF4FBB231CF480E090E066
:10131000DC01811520E19207A105B10524F08FEFD2
:101320009FE0A0E0B0E0F801EE0FFF1FEE0DFF1D03
:10133000808391830F5F1F4F0F3F110571F268F299
:10134000DF91CF911F910F91FF90EF90DF90CF90A1
:10135000BF90AF909F908F907F906F905F904F90D5
:101360000895CF92DF92EF92FF92CF93DF93E090B8
:101370000220F0900320C0E0D0E031C0C031D105A0
:10138000B0F49701DE010E94640BDC01CB0168948C
:1013900013F8B695A795979587951694D1F7FE0102
:1013A000EE0FFF1FE354F94C8083918317C0970120
:1013B0002C5D3540DE0150970E94640B20E330E045
:1013C00040E050E00E94390BC701821B930BFE01E5
:1013D000EE0FFF1FE354F94C808391832196C034B4
:1013E000D10560F2E0E0F0E020E03CED45E050E0C7
:1013F00014C0C32ED42EE52EFF24DF01AA0FBB1F7D
:10140000A35CBB4CCD92DC92AAEFB0E00E94730BC0
:10141000272F382F492F55273196EF3FF10549F3F4
:1014200040F3DF91CF91FF90EF90DF90CF90089540
:101430000E94F9030E941E040E94B109C0E0D0E09E
:101440002EC0FE01EE0FFF1FEE50FD4F459154914F
:101450004A01242F392D40E050E060E070E080E048
:1014600090E000E20E94E50B6894AA24A5F80F2EF4
:10147000FEE4BF2EF02DC12CD12CE12CF12C00E08C
:1014800010E00E94880BFE01EE0FFF1FEE0FFF1F02
:10149000E352FD4C20833183428353832196C83528
:1014A000D10578F20E94280580E01FC0282F30E087
:1014B000220F331FF901EE0FFF1FEE0FFF1FEE0F7C
:1014C000FF1FE21BF30BE35CF84C93E09083118267
:1014D0001282138214821582168217821086118658
:1014E00012861386148615868F5F8330F8F240E0EB
:1014F00017C0E42FF0E0FE2FEE27E80FF91FEE0FE4
:10150000FF1FE959F84C20E038E020833183019631
:1015100002C080E090E08F3F910559F350F34F5F98
:101520004230B8F380E006C0E82FF0E0E959F44C0F
:1015300010828F5F8930C0F380E007C0E82FF0E0B1
:10154000EC5CFF4D9FEF90838F5F8835B8F321E00F
:1015500041E060E080E496E00E94160B81E1809318
:101560000C080E9459040E94250B78940E942E04B6
:10157000E0E4F6E08FE1818380E8818385838091D8
:10158000030182FF05C010922D2084E080930301A7
:1015900080912F20882371F110922F20C0E4D6E093
:1015A00089E08D830E94B70688E08E838091302089
:1015B00080932A2014E01D8390912A2081E08927BE
:1015C00090E0982F8827990F8959984C0E943008ED
:1015D0001E8380912B208F5F80932B20843038F0E6
:1015E00010922B2010E11D830E943C051E8381E098
:1015F0008093460680912C20882309F280912D202B
:101600008111BDCF81E080932D2010922C20C0E06D
:10161000D1E084E08B8387E299E08CAB9DAB809135
:1016200033200E949A0484E888ABA9CFE0E0F8E078
:101630003CE03187019786A397A3618340832223EF
:1016400019F080EC809380010895E0E6F6E088E0F0
:101650008583818384E08283E0EAF9E081E0868308
:10166000178283E08583808180E481838CE1848399
:101670000895A1E21A2EAA1BBB1BFD010DC0AA1FD3
:10168000BB1FEE1FFF1FA217B307E407F50720F0EB
:10169000A21BB30BE40BF50B661F771F881F991F66
:1016A0001A9469F760957095809590959B01AC01AF
:1016B000BD01CF010895EE0FFF1F881F8BBF07905C
:1016C000F691E02D1BBE1994A29FB001B39FC001FB
:1016D000A39F700D811D1124911DB29F700D811D5E
:1016E0001124911D08950E94640BA59F900DB49F35
:1016F000900DA49F800D911D11240895B7FF0C94A7
:10170000730B0E94730B821B930B0895689401C0A6
:10171000E8948F929F92CF93DF930E94940BDF9176
:10172000CF919F908F90089588249924F401E4012B
:10173000B0E49F93AA279A158B049C04ED05FE053F
:10174000CF05D007A10798F4AD2FDC2FCF2FFE2FA8
:10175000E92D982C892E982F872F762F652F542FBF
:10176000432F322F2227B85031F7BF9127C01B2EAD
:10177000BF91BB27220F331F441F551F661F771FC2
:10178000881F991F881C991CEE1FFF1FCC1FDD1F8F
:10179000AA1FBB1F8A149B04EC05FD05CE05DF05BF
:1017A000A007B10748F08A189B08EC09FD09CE098B
:1017B000DF09A00BB10B21601A94E1F62EF494011D
:1017C000AF01BE01CD01000C08950F93083090F0D9
:1017D000982F872F762F652F542F432F322F2227B4
:1017E0000850F4CF220F331F441F551F661F771F69
:1017F000881F991F0A95B2F70F910895DC0128ED13
:0C180000209334006C930895F894FFCFFF
:10180C000301FF0700000001800055004000330079
:10181C002B0025002000A205A203416374697665A4
:0A182C0020566F696365733A2000CF
:00000001FF
