S00D000073796E74682E73726563E1
S11300000C94F6050C941C060C941C060C941C060B
S11300100C941C060C941C060C94E0090C941C060D
S11300200C941C060C941C060C941C060C941C06C4
S11300300C941C060C941C060C941C060C941C06B4
S11300400C941C060C941C060C941C060C941C06A4
S11300500C941C060C941C060C941C060C941C0694
S11300600C941C060C941C060C941C060C941C0684
S11300700C941C060C941C060C941C060C941C0674
S11300800C941C060C941C060C941C060C941C0664
S11300900C941C060C941C060C941C060C941C0654
S11300A00C941C060C941C060C941C060C941C0644
S11300B00C941C060C941C060C941C060C941C0634
S11300C00C941C060C941C060C941C060C941C0624
S11300D00C941C060C941C060C941C060C941C0614
S11300E00C941C060C941C060C941C060C941C0604
S11300F00C941C060C941C060C941C060C941C06F4
S11301000C941C060C941C060C941C060C941C06E3
S11301100C941C060C941C060C941C060C941C06D3
S11301200C941C060C941C060C941C060C941C06C3
S11301300C941C060C941C060C941C060C941C06B3
S11301400C941C060C941C060C941C060C941C06A3
S11301500C941C060C941C060C941C060C941C0693
S11301600C941C060C941C060C941C060C941C0683
S11301700C941C060C941C060C941C060C941C0673
S11301800C941C060C941C060C941C060C941C0663
S11301900C941C060C941C060C941C060C941C0653
S11301A00C941C060C941C060C941C060C941C0643
S11301B00C941C060C941C060C941C060C941C0633
S11301C00C941C060C941C060C941C060C941C0623
S11301D00C941C060C941C060C941C060C941C0613
S11301E00C941C060C941C060C941C060C941C0603
S11301F00C941C060C941C060C941C06E60A0D0BAD
S11302000D0B0D0B0D0B0D0B0D0B0D0BB60ABE0AD2
S11302100D0BCA0AD20ADA0A0D0B0D0B0D0B0D0BCE
S11302200D0B0D0B0D0B0D0B0D0B0D0B0D0B0D0B0A
S11302300D0B0D0B0D0B0D0B0D0B0D0B0D0B0D0BFA
S11302400D0B0D0B0D0B0D0B0D0B0D0B0D0B0D0BEA
S11302500D0B0D0B0D0B0D0B0D0B0D0B0D0B0D0BDA
S11302600D0B0D0B0D0B0D0BFE0AF40A0D0BB30A4F
S11302700D0B0D0B0D0BD60A0D0B0D0B0D0B080BF7
S1130280030BDE0AE20A0D0BBA0A0D0BC20ACE0AF0
S1130290F90A0D0BEF0AC60AEA0A0C94CE0A0C946A
S11302A0CA0A0C94F40A0C94030B0C94D60A0C940A
S11302B0DA0A0C94DE0A0C94C20A0C94BE0A0C945A
S11302C0FE0A0C94B60A0C94E60A0C94BA0A0C942E
S11302D0D20A0C94F90A0C94C60A0C940D0B0C94D3
S11302E0EF0A0C94E20A0C94B30A0C94080B0C94D5
S11302F0EA0A0001F000E000C00080003303990125
S1130300CD00660033001A000D00B601DB006D005D
S113031037001B000E000700B00458022C019600A1
S11303204B00260013000204081020408001020440
S11303300810204001020408102040FF03FF03FFBF
S113034003FF03FF03FF03FF03FF03FF03FF03FF99
S113035003FF03FF03FF03FF03FF03FF03FF03FF89
S113036003FF03FF03FF03FF03FF03FF03FF03FF79
S113037003FF03FF03FF03FF03FF03FF03FF03FF69
S113038003FF03FF03FF03FF03FF03FF03FF03FF59
S113039003FF03FF03FF03FF03FF03FF03FF03FF49
S11303A003FF03FF03FF03FF03FF03FF03FF03FF39
S11303B003FF03FF03FF03FF03FF03FF03FF03FF29
S11303C003FF03FF03FF03FF03FF03FF03FF03FF19
S11303D003FF03FF03FF03FF03FF03FF03FF03FF09
S11303E003FF03FF03FF03FF03FF03FF03FF03FFF9
S11303F003FF03FF03FF03FF03FF03FF03FF03FFE9
S113040003FF03FF03FF03FF03FF03FF03FF03FFD8
S113041003FF03FF03FF03FF03FF03FF03FF03FFC8
S113042003FF03FF03FF03FF03FF03FF03FF03FFB8
S113043003FF03FF03FF03FF03FF0300FC00FC00B3
S1130440FC00FC00FC00FC00FC00FC00FC00FC00C8
S1130450FC00FC00FC00FC00FC00FC00FC00FC00B8
S1130460FC00FC00FC00FC00FC00FC00FC00FC00A8
S1130470FC00FC00FC00FC00FC00FC00FC00FC0098
S1130480FC00FC00FC00FC00FC00FC00FC00FC0088
S1130490FC00FC00FC00FC00FC00FC00FC00FC0078
S11304A0FC00FC00FC00FC00FC00FC00FC00FC0068
S11304B0FC00FC00FC00FC00FC00FC00FC00FC0058
S11304C0FC00FC00FC00FC00FC00FC00FC00FC0048
S11304D0FC00FC00FC00FC00FC00FC00FC00FC0038
S11304E0FC00FC00FC00FC00FC00FC00FC00FC0028
S11304F0FC00FC00FC00FC00FC00FC00FC00FC0018
S1130500FC00FC00FC00FC00FC00FC00FC00FC0007
S1130510FC00FC00FC00FC00FC00FC00FC00FC00F7
S1130520FC00FC00FC00FC00FC00FC00FC00FC00E7
S1130530FC00FC00FC00FC00FC00FC00FC08FC10BF
S1130540FC18FC20FC28FC30FC38FC40FC48FC5027
S1130550FC58FC60FC68FC70FC78FC80FC88FC9017
S1130560FC98FCA0FCA8FCB0FCB8FCC0FCC8FCD007
S1130570FCD8FCE0FCE8FCF0FCF8FC00FD08FD10F5
S1130580FD18FD20FD28FD30FD38FD40FD48FD50DF
S1130590FD58FD60FD68FD70FD78FD80FD88FD90CF
S11305A0FD98FDA0FDA8FDB0FDB8FDC0FDC8FDD0BF
S11305B0FDD8FDE0FDE8FDF0FDF8FD00FE08FE10AD
S11305C0FE18FE20FE28FE30FE38FE40FE48FE5097
S11305D0FE58FE60FE68FE70FE78FE80FE88FE9087
S11305E0FE98FEA0FEA8FEB0FEB8FEC0FEC8FED077
S11305F0FED8FEE0FEE8FEF0FEF8FE00FF08FF1065
S1130600FF18FF20FF28FF30FF38FF40FF48FF504E
S1130610FF58FF60FF68FF70FF78FF80FF88FF903E
S1130620FF98FFA0FFA8FFB0FFB8FFC0FFC8FFD02E
S1130630FFD8FFE0FFE8FFF0FFF8FF00000800101C
S11306400018002000280030003800400048005006
S113065000580060006800700078008000880090F6
S1130660009800A000A800B000B800C000C800D0E6
S113067000D800E000E800F000F8000001080110D4
S113068001180120012801300138014001480150BE
S113069001580160016801700178018001880190AE
S11306A0019801A001A801B001B801C001C801D09E
S11306B001D801E001E801F001F80100020802108C
S11306C00218022002280230023802400248025076
S11306D00258026002680270027802800288029066
S11306E0029802A002A802B002B802C002C802D056
S11306F002D802E002E802F002F802000308031044
S1130700031803200328033003380340034803502D
S1130710035803600368037003780380038803901D
S1130720039803A003A803B003B803C003C803D00D
S113073003D803E003E803F003F8031C001D001FC3
S113074000210023002500270029002C002E003161
S113075000340037003A003E004100450049004E95
S113076000520057005C00620068006E0075007B58
S11307700083008B0093009C00A500AF00B900C467
S113078000D000DC00E900F700060115012601375E
S1130790014A015D01720188019F01B801D201EE95
S11307A0010B022A024B026E029302BA02E4021007
S11307B0033F037003A403DC03170455049704DD0B
S11307C00427057505C80520067D06E0064907B817
S11307D0072D08A9082D09B9094D0AEA0A900B400A
S11307E00CFA0CC00D910E6F0F5A1000FC10FC2077
S11307F0FC30FC40FC50FC60FC70FC80FC90FCA0D5
S1130800FCB0FCC0FCD0FCE0FCF0FC00FD10FD20C2
S1130810FD30FD40FD50FD60FD70FD80FD90FDA0AC
S1130820FDB0FDC0FDD0FDE0FDF0FD00FE10FE209A
S1130830FE30FE40FE50FE60FE70FE80FE90FEA084
S1130840FEB0FEC0FED0FEE0FEF0FE00FF10FF2072
S1130850FF30FF40FF50FF60FF70FF80FF90FFA05C
S1130860FFB0FFC0FFD0FFE0FFF0FF00001000204A
S1130870003000400050006000700080009000A034
S113088000B000C000D000E000F000000110012022
S1130890013001400150016001700180019001A00C
S11308A001B001C001D001E001F0010002100220FA
S11308B0023002400250026002700280029002A0E4
S11308C002B002C002D002E002F0020003100320D2
S11308D0033003400350036003700380039003A0BC
S11308E003B003C003D003E003F0030004F003E00B
S11308F003D003C003B003A003900380037003601C
S113090003500340033003200310030003F002E00C
S113091002D002C002B002A0029002800270026003
S113092002500240023002200210020002F001E0F4
S113093001D001C001B001A00190018001700160EB
S113094001500140013001200110010001F000E0DC
S113095000D000C000B000A00090008000700060D3
S113096000500040003000200010000000F0FFE0C4
S1130970FFD0FFC0FFB0FFA0FF90FF80FF70FF60BB
S1130980FF50FF40FF30FF20FF10FF00FFF0FEE0AC
S1130990FED0FEC0FEB0FEA0FE90FE80FE70FE60A3
S11309A0FE50FE40FE30FE20FE10FE00FEF0FDE094
S11309B0FDD0FDC0FDB0FDA0FD90FD80FD70FD608B
S11309C0FD50FD40FD30FD20FD10FD00FDF0FCE07C
S11309D0FCD0FCC0FCB0FCA0FC90FC80FC70FC6073
S11309E0FC50FC40FC30FC20FC10FC0000190032E0
S11309F0004B0064007D009600AE00C700E000F8E4
S1130A00001001290141015801700187019E01B5BF
S1130A1001CC01E201F8010E02230238024D026109
S1130A2002750289029C02AF02C102D302E502F6FA
S1130A300207031703260336034403530360036DBD
S1130A40037A03860392039D03A703B103BA03C386
S1130A5003CB03D303DA03E003E603EB03F003F46D
S1130A6003F703FA03FC03FE03FF03FF03FF03FE84
S1130A7003FC03FA03F703F403F003EB03E603E0D8
S1130A8003DA03D303CB03C303BA03B103A7039D60
S1130A9003920386037A036D03600353034403360E
S1130AA003260317030703F602E502D302C102AFCC
S1130AB0029C028902750261024D02380223020E71
S1130AC002F801E201CC01B5019E018701700158D1
S1130AD001410129011001F800E000C700AE0096B1
S1130AE0007D0064004B00320019000000E6FFCDD9
S1130AF0FFB4FF9BFF82FF69FF51FF38FF1FFF0711
S1130B00FFEFFED6FEBEFEA7FE8FFE78FE61FE4A14
S1130B10FE33FE1DFE07FEF1FDDCFDC7FDB2FD9EAA
S1130B20FD8AFD76FD63FD50FD3EFD2CFD1AFD0999
S1130B30FDF8FCE8FCD9FCC9FCBBFCACFC9FFC92B6
S1130B40FC85FC79FC6DFC62FC58FC4EFC45FC3CCD
S1130B50FC34FC2CFC25FC1FFC19FC14FC0FFC0BC6
S1130B60FC08FC05FC03FC01FC00FC00FC00FC018F
S1130B70FC03FC05FC08FC0BFC0FFC14FC19FC1F1B
S1130B80FC25FC2CFC34FC3CFC45FC4EFC58FC6273
S1130B90FC6DFC79FC85FC92FC9FFCACFCBBFCC9A5
S1130BA0FCD9FCE8FCF8FC09FD1AFD2CFD3EFD50C7
S1130BB0FD63FD76FD8AFD9EFDB2FDC7FDDCFDF102
S1130BC0FD07FE1DFE33FE4AFE61FE78FE8FFEA782
S1130BD0FEBEFED6FEEFFE07FF1FFF38FF51FF6982
S1130BE0FF82FF9BFFB4FFCDFFE6FF0011241FBE71
S1130BF0CFEFCDBFDFE3DEBF00E00CBF18BE19BEF0
S1130C001ABE1BBE10E2A0E0B0E2E2E8F1E200E0AE
S1130C100BBF02C007900D92A233B107D9F71BBED8
S1130C2029E3A2E3B0E201C01D92AA30B207E1F7C2
S1130C300E94EF0E0C94BF100C940000E0E5F0E06D
S1130C408081826080838091510081FFFCCFE0E548
S1130C50F0E08081846080838091510082FFFCCF2A
S1130C60E0E5F0E08681897F868381E080936000FF
S1130C7061E080E490E00E94B91060E081E490E0DB
S1130C800E94B9100895E0E0F3E082E2818388E1F4
S1130C9082838CE08093B00087E0809312061382F5
S1130CA08DE080830895E0E0F1E089E5828B809116
S1130CB03E2090E0982F8827990F8F5F9A4C808F61
S1130CC0918F128E8AE1848F83E0858F168E81E066
S1130CD0838B168A80E092E0848B958B82E0818BF3
S1130CE0A0EAB0E012968C911297826012968C93CF
S1130CF080898568808B80E880830895E0E0F1E056
S1130D0085E082A381E099E350EA50A749E041A736
S1130D1012A684A795A716A68BE683A316A289E03C
S1130D2090E084A395A380A1846A80A380ED82AB24
S1130D30609141202AE239E0629FC001639F900DD7
S1130D40112486569F4D80AF91AF12AE54AF45AF7C
S1130D5016AE24AB35AB8CE683AB84E080AB8081EC
S1130D6080688083089590E0982F8827990F8F5F7B
S1130D709A4CE0E0F1E0808F918F128E08952AE280
S1130D8039E0482F429FC001439F900D112486569D
S1130D909F4DE0E0F1E080AF91AF12AE08950F9364
S1130DA01F93CF93DF93EC01FB014150542F3BC0C1
S1130DB0309711F454132FC08E01050F111D57FDE8
S1130DC01A959F01ADECBCEC0E941810969587957E
S1130DD096958795969587959C01220F331F880FCA
S1130DE0991F880F991F880F991F820F931F9F01C6
S1130DF0281B390BC901805DD8018C939F01ADEC90
S1130E00BCEC0E941810FC01F695E795F695E79561
S1130E10F695E79507C080E2DE01A50FB11D57FDE9
S1130E20BA958C93515055231CF6DF91CF911F91A5
S1130E300F910895CF92DF92EF92FF920F931F9339
S1130E40CF93DF93EC0140E019C09E0182E8489FF4
S1130E50200D311D112480E006C0F901E80FF11DB9
S1130E6090E290838F5F8823C4F7F901E058FF4F25
S1130E708DE0808331968AE080834F5F423128F38E
S1130E8080E009C0E82FF0E0E05EF74FEC0FFD1FB3
S1130E909DE290838F5F8823ACF720E00DC0822F02
S1130EA090E0FC01EE55F74FEC0FFD1FDC01AE5D49
S1130EB0BF4D8C9180832F5F2F3088F38E010E55A8
S1130EC0174FFE01EF54F74F0F2EF0E3EF2EF02DE6
S1130ED0E082329683E5808331960F2EFAE3FF2E6B
S1130EE0F02DF0823196E08297E5D80155969C93D7
S1130EF055975696FC92569757968C93579789E434
S1130F0058968C9358978EE459968C93599786E506
S1130F105B968C935B975C96FC925C975D96EC92E7
S1130F205D9781E45F968C935F979096FC920F2E69
S1130F30F3E0CF2EF0E2DF2EF02DD601EC91F0E0BD
S1130F40EE0FFF1FE450FD4F6591749144E0C8011A
S1130F5081960E94CF0684E4F80186A3F7A2D60105
S1130F601196EC91F0E03796EE0FFF1FE450FD4F21
S1130F706591749144E0C80188960E94CF0682E589
S1130F80F80185A7F6A6D6011296EC91F0E03E96FC
S1130F90EE0FFF1FE450FD4F6591749144E0C801CA
S1130FA08F960E94CF0686E4F80184ABF5AAE6AAE0
S1130FB0EE57FF4F9BE1908331968BE5808331960A
S1130FC02AE420833196908331968083C75DD64F7F
S1130FD088E48883DF91CF911F910F91FF90EF9068
S1130FE0DF90CF9008958F3F910509F070F4E09160
S1130FF03220F0E0FE2FEE27E80FF91FEE0FFF1F5F
S1131000EF5FFA4C808191810895811522E0920767
S113101088F4E091322021E0E227F0E09A95FE2F57
S1131020EE27E80FF91FEE0FFF1FEF5FFA4C8081E8
S11310309181089580E098E0089580E007C0E82F4A
S1131040F0E0EF5AFB4C97E090838F5F8823BCF766
S11310508AE990E20E941A0784EC99E20E941A0736
S11310600895AF92BF92CF92DF92EF92FF920F93C7
S11310701F93CF93DF93209107208AE299E0289F62
S1131080E001299FD00D1124C656DF4D80914020E8
S11310908F5F8093402000E010E010C0C8010E94E0
S11310A0F3077C010F5F1F4FC8010E94F307E1148F
S11310B028E0F20618F48115984030F40F3F11052A
S11310C069F360F300E010E040E011C0B2E84B9F28
S11310D09001112480E008C0F901E80FF11DEC0F24
S11310E0FD1F90E290838F5F8823B4F74F5F4031F8
S11310F068F380E009C0E82FF0E0E05EF74FEC0F02
S1131100FD1F9DE290838F5F8823ACF77E01EEE59F
S1131110EE1AE7EFFE0A80E006C0F701E80FF11DC2
S113112090E290838F5F8823C4F720E00BC0822F66
S113113090E0F701E80FF91FDC01AE5DBF4D8C9123
S113114080832F5F2F3098F380913C20805DFE01D7
S1131150EF54F74F808383E5329680833AE33196E8
S11311603083909140208DEC989F812D1124869599
S113117086958695880F282F220F220F820F981BA1
S1131180892F805D3196808387E5D70155968C93AE
S1131190559756963C9380913F20813071F028F00A
S11311A08230C1F08330F1F02AC083E5F701878BE8
S11311B089E4808F8EE4818F27C084E5D701579618
S11311C08C93579782E558968C93589789E459964F
S11311D08C931AC083E5F701878B81E4808F87E5C0
S11311E0818F12C083E5D70157968C93579781E579
S11311F058968C93589782E559968C9305C08FE343
S1131200F701878B808F818F86E5D7015B968C935E
S11312105B978AE35C968C9380913720882311F046
S113122081E301C080E3F701858F81E4878F0F2E6E
S1131230FAE3DF2EF02DD0A20F2EF3E0AF2EF0E272
S1131240BF2EF02DD501EC91F0E0EE0FFF1FE4501E
S1131250FD4F6591749144E0C70181960E94CF06C9
S113126084E4F70186A3D7A2D5011196EC91F0E0AE
S11312703796EE0FFF1FE450FD4F6591749144E0E3
S1131280C70188960E94CF0682E5F70185A7D6A6F6
S1131290D5011296EC91F0E03E96EE0FFF1FE4505C
S11312A0FD4F6591749144E0C7018F960E94CF066B
S11312B086E4F70184ABD5AA80913620805D86ABA5
S11312C0409107202AE239E0429FC001439F900DDC
S11312D0112486569F4DFC01EC5DF64F3BE13083B3
S11312E031962BE5208331964AE44083319630834E
S11312F031962083319628E42083C8010E94F307A5
S11313008FE0F82EF91AE12C3EC0CE2CD12CC60168
S1131310880F991F800F911F0E94F3072FE0291B4C
S1131320F60182E8289FE00DF11D1124EC0FFD1F4A
S11313308AE28083EE2029F1F21688F481E08F0D91
S11313400BC0F60192E8899FE00DF11D1124EC0F0A
S1131350FD1F9AE290838F5F821798F312C02F15B6
S113136080F480E1891B0BC0F601A2E88A9FE00D9E
S1131370F11D1124EC0FFD1F9AE290838F5F8F15EE
S113138098F3E394F22EEE200CF0BFCF2FB7F8942D
S113139080910720809341208091072091E0892744
S11313A0809307202FBF90933420DF91CF911F911A
S11313B00F91FF90EF90DF90CF90BF90AF90089582
S11313C01F920F920FB60F92112408B60F9218BEF7
S11313D009B60F9219BE0BB60F921BBE0F931F9343
S11313E02F933F934F935F936F937F938F939F9329
S11313F0AF93BF93CF93EF93FF9382E0809347061D
S113140080913E20C1E08C2780933E2000E011E0D3
S1131410F801C38380913E200E94B306F8018089BD
S11314208068808BC0933D20FF91EF91CF91BF9155
S1131430AF919F918F917F916F915F914F913F9168
S11314402F911F910F910F900BBE0F9009BE0F901B
S113145008BE0F900FBE0F901F901895CF93DF9387
S1131460833781F480913F2090E0019683709078D7
S1131470992324F401978C6F9F6F019680933F20EA
S11314808FEFCCC0813641F49091372081E08927D9
S1131490809337208FEFC2C08436E1F44091362028
S11314A050E04F5F5F4F9A01ADECBCEC0E94181006
S11314B096958795969587959C01220F331F220F49
S11314C0331F820F931F9A01281B390B2093362058
S11314D08FEFA4C04FEC480F4330C0F550E0EA0151
S11314E0CD5FDF4DE881F0E031969F01A3E9B4E2DE
S11314F00E941810281B390B36952795820F931FCD
S113150096958795969587959C01220F331F220FF8
S1131510331F220F331FB901681B790B9F01261B50
S1131520370B2883FA01EE0FFF1FEE0FFF1FEE0F9C
S1131530FF1FE41BF50BE20FF11DEA5DFC4FE49184
S1131540DA01A050B04EEC938FEF68C090E0FC013C
S1131550BC97EF34F10508F060C08827E250FF4FD4
S11315608F4F0C9407108091062058C0809106205C
S11315708F5F54C0809106208E5F50C080910620FA
S11315808D5F4CC0809106208C5F48C080910620FE
S11315908B5F44C0809106208A5F40C08091062002
S11315A0895F3CC080910620885F38C08091062006
S11315B0875F34C080910620865F30C0809106200A
S11315C0855F2CC080910620845F28C0109206207D
S11315D08FEF24C083E0809306208FEF1FC08FE03D
S11315E0809306208FEF1AC08BE1809306208FEF43
S11315F015C087E2809306208FEF10C083E38093A9
S113160006208FEF0BC08FE3809306208FEF06C078
S11316108BE4809306208FEF01C08FEFDF91CF9191
S113162008950F931F93CF93DF9380E008C090E158
S1131630899FF0011124EF52FB4C16868F5F833093
S1131640B0F3C0E0D0E0C9C0FE01EF5FF64C80818A
S1131650882309F4C1C00E942E0AFE01EF5FF64CF4
S1131660108288230CF4B8C0482F082E000C550BA8
S1131670FA01EE5BFF4D208122237CF1022E000C47
S1131680330BF901E295F295F07FFE27E07FFE2708
S1131690EF52FB4C90819430D9F0F901E295F29528
S11316A0F07FFE27E07FFE27EF52FB4C81E0868728
S11316B086E08787933009F08FC022953295307F7A
S11316C03227207F3227F901EF52FB4C108284C06D
S11316D09FEFFA01EE5BFF4D908390E0AFEFBFEF19
S11316E07FEF21C0292F30E0F901E295F295F07FD8
S11316F0FE27E07FFE27EF52FB4C60816430B1F09F
S1131700633081F422953295307F3227207F32274F
S1131710F901EF52FB4C22853385A217B30710F071
S1131720792FD9019F5F9330E8F29FEF992324F436
S113173077230CF451C0972FE92F092E000CFF0BCF
S1131740DF01A295B295B07FBA27A07FBA27AF5226
S1131750BB4C2C912430B9F0DF01A295B295B07F37
S1131760BA27A07FBA27AF52BB4C11962C9130E018
S1131770D901AE5BBF4D6C91961305C0D901AE5B28
S1131780BF4D6FEF6C93E295F295F07FFE27E07FFB
S1131790FE27EF52FB4C10821286138614861586A0
S11317A081831282138214821582DA01AA0FBB1F6D
S11317B0AA0FBB1FAF50BD4C0D911D912D913C91B3
S11317C0068317832087318781E0868786E08787B1
S11317D0FA01EE5BFF4D90832196C930D10508F4E0
S11317E033CF20E04BC0822F90E0FC01E295F295CC
S11317F0F07FFE27E07FFE27EF52FB4C3081335011
S11318003230D8F1FC01E295F295F07FFE27E07FBB
S1131810FE27EF52FB4C3685311118C0FC01E295CE
S1131820F295F07FFE27E07FFE27EF52FB4C3785D1
S1131830332361F082959295907F9827807F982733
S1131840FC01EF52FB4C3150378717C0FC01E29585
S1131850F295F07FFE27E07FFE27EF52FB4C3785A1
S113186031110BC082959295907F9827807F98279D
S1131870FC01EF52FB4C83E080832F5F233008F49C
S1131880B2CFDF91CF911F910F9108952F923F9284
S11318904F925F926F927F928F929F92AF92BF927C
S11318A0CF92DF92EF92FF920F931F93CF93DF9328
S11318B0CDB7DEB76297CDBFDEBF8F87988B10920E
S11318C03C2080E014C020E1829FF0011124EF52FB
S11318D0FB4C9081943051F0E0913C2091E09E0FBC
S11318E090933C20F0E0E251FD4C80838F5F833085
S11318F050F310913C20112371F014C0FC01EE0F41
S1131900FF1F6F857889E60FF71F20E038E02083FA
S11319103183019602C080E090E08F3F910571F31E
S113192068F347C2E0913F20F0E0EE0FFF1FE65E50
S1131930FF4DC080D180E12FF0E0EE0FFF1FE85F84
S1131940FF4D80819181898B9A8B809137208823E8
S113195009F482C08091382090913920A0913A20D6
S1131960B0913B208E52924BAD49BF4E80933820AC
S113197090933920A0933A20B0933B20EB2FF0E0D2
S1131980EE0FFF1FE551F64F85919491E82EF92E45
S113199000E03EC0E02FF0E0DF01A251BD4CAC916D
S11319A090E1A99FD0011124AF52BB4C16964D90E3
S11319B05D906D907C901997A3019201012E1AE01D
S11319C056954795379527951A95D1F7102DAE2D35
S11319D0BF2D0E942E10DC01CB01689416F8B5953A
S11319E0A795979587951694D1F7480E591E6A1EA8
S11319F07B1EEE0FFF1FEE0FFF1F21E030E02C0FC8
S1131A003D1FE20FF31F40825182628273820F5F97
S1131A10011708F4BFCF23C0822F90E0FC01E251EC
S1131A20FD4CE08130E1E39FF0011124EF52FB4CC7
S1131A304681578160857185880F991F880F991F8A
S1131A40E1E0F0E0EC0FFD1FE80FF91F4083518344
S1131A50628373832F5F01C020E02117E8F2E091D5
S1131A603620F0E0EE0FFF1FEE50FD4FE590F490AE
S1131A70212C312C99C1242F30E0F901E251FD4C85
S1131A80808190E0FC01E295F295F07FFE27E07FF3
S1131A90FE27EF52FB4C5081513009F440C038F01E
S1131AA0523009F4C9C0533009F47FC048C1509181
S1131AB00020FC01E295F295F07FFE27E07FFE27EF
S1131AC0EF52FB4C62857385650F711D62877387C6
S1131AD0603F7F4778F0FC01E295F295F07FFE27A6
S1131AE0E07FFE27EF52FB4C60EF7FE7628773874E
S1131AF051E05083FC01E295F295F07FFE27E07FF0
S1131B00FE27EF52FB4C02851385B801729562954E
S1131B106F7067277F7067276D877E8791C0FC0190
S1131B20E295F295F07FFE27E07FFE27EF52FB4C13
S1131B3062857385A0910120B0E0FD01E054F24A72
S1131B40E617F70770F4FC01E295F295F07FFE27A3
S1131B50E07FFE27EF52FB4C6A1B7B0B6287738787
S1131B600FC0FC01E295F295F07FFE27E07FFE278F
S1131B70EF52FB4C60EC7DE56287738752E0508343
S1131B80FC01E295F295F07FFE27E07FFE27EF52FD
S1131B90FB4C02851385F801F295E295EF70EF276F
S1131BA0FF70EF27ED87FE874BC0FC01E295F295AD
S1131BB0F07FFE27E07FFE27EF52FB4C62857385A2
S1131BC0A0910220B0E0A617B70770F4FC01E295DB
S1131BD0F295F07FFE27E07FFE27EF52FB4C6A1B55
S1131BE07B0B6287738713C0FC01E295F295F07F4B
S1131BF0FE27E07FFE27EF52FB4C12861386A1815D
S1131C00B0E0AE5BBF4D5FEF5C9354E05083FC01EA
S1131C10E295F295F07FFE27E07FFE27EF52FB4C22
S1131C2002851385B801729562956F7067277F707E
S1131C3067276D877E8704C0ECEDF5E0ED87FE87AE
S1131C40220F331F220F331FE1E0F0E0EC0FFD1FE2
S1131C50E20FF31F0081118122813381FC01E2959F
S1131C60F295F07FFE27E07FFE27EF52FB4C828047
S1131C709380A480B580800E911EA21EB31E828222
S1131C809382A482B582EB2DF0E0EE0FFF1FEC0DE2
S1131C90FD1D25913491B901FFEFEF16F10409F010
S1131CA0D8F4FC01E295F295F07FFE27E07FFE2751
S1131CB0EF52FB4CA484B5842A193B09D7010E9436
S1131CC01010BB2797FDBA95A92F982F872FB50120
S1131CD0680F791F6487758777232CF47195619554
S1131CE0710921E001C020E0ED85FE856E9F802D05
S1131CF0912DAA27BB276F9F900DA11D7E9F900D4C
S1131D00A11D1124B11D7F9FA00DB11D892F9A2FF4
S1131D10AB2FBB27A795979587958894A7959795FB
S1131D2087951124222339F0B095A095909581953B
S1131D309F4FAF4FBF4F480E591E6A1E7B1E4F5F09
S1131D4004C040E0412C512C320180913C204817C2
S1131D5008F491CEA989BA89A30192010E942E1098
S1131D60BB2797FDBA95A92F982F872F985FAF4F60
S1131D70BF4FBB231CF480E090E0DC018115F0E14F
S1131D809F07A105B10524F08FEF9FE0A0E0B0E02C
S1131D90F101EE0FFF1F2F853889E20FF31F8083B7
S1131DA091833FEF231A330A5FEF2516310449F27A
S1131DB040F26296CDBFDEBFDF91CF911F910F91AC
S1131DC0FF90EF90DF90CF90BF90AF909F908F9057
S1131DD07F906F905F904F903F902F9008950E9456
S1131DE01E060E944306C0E0D0E02EC0FE01EE0FA6
S1131DF0FF1FE55CF84F459154914A01242F392D7A
S1131E0040E050E060E070E080E090E000E20E949A
S1131E1095106894AA24A5F80F2EFEE4BF2EF02D89
S1131E20C12CD12CE12CF12C00E010E00E943810E0
S1131E30FE01EE0FFF1FEE0FFF1FEF50FD4C20833E
S1131E403183428353832196C835D10578F20E94A9
S1131E501D0880E018C090E1899FF0011124EF5221
S1131E60FB4C94E0908311821282138214821582B7
S1131E70168217821086118612861386148615869A
S1131E80168617868F5F833030F340E017C0E42F47
S1131E90F0E0FE2FEE27E80FF91FEE0FFF1FEF5FB4
S1131EA0FA4C20E038E020833183019602C080E0C0
S1131EB090E08F3F910559F350F34F5F4230B8F3F0
S1131EC080E006C0E82FF0E0EF5FF64C10828F5FF1
S1131ED08930C0F380E007C0E82FF0E0EE5BFF4DEF
S1131EE09FEF90838F5F8835B8F321E041E060E095
S1131EF080E496E00E94E40F81E180930C080E9444
S1131F007E060E94F30F78940E945306E0E4F6E004
S1131F108FE1818380E8818385838091030182FF3F
S1131F2005C01092352084E08093030180913D2008
S1131F30882371F110923D20C0E4D6E089E08D83BE
S1131F400E94110B88E08E8380913E208093322082
S1131F5014E01D839091322081E0892790E0982F2E
S1131F608827990F8F5F9A4C0E94460C1E8380919C
S1131F7033208F5F80933320843038F010923320E5
S1131F8010E11D830E9431081E8381E08093460680
S1131F9080913420882309F2809135208111BDCFAE
S1131FA081E08093352010923420C0E0D1E084E0B9
S1131FB08B838AE299E08CAB9DAB809141200E9497
S1131FC0BF0684E888ABA9CFE0E0F8E03CE03187C5
S1131FD0019786A397A361834083222319F080ECA1
S1131FE0809380010895E0E6F6E088E085838183AC
S1131FF084E08283E0EAF9E081E08683178283E06B
S11320008583808180E481838CE184830895EE0F4D
S1132010FF1F881F8BBF0790F691E02D1BBE1994FC
S11320200E941810332312F48A1B9B0B0C94291062
S1132030A29FB001B39FC001A39F700D811D112405
S1132040911DB29F700D811D1124911D08950E9450
S11320501810B7FF0895821B930B0895B7FF0C94D3
S1132060AE100E94AE10821B930B0895689401C0B9
S1132070E8948F929F92CF93DF930E944410DF9154
S1132080CF919F908F90089588249924F401E401BE
S1132090B0E49F93AA279A158B049C04ED05FE05D2
S11320A0CF05D007A10798F4AD2FDC2FCF2FFE2F3B
S11320B0E92D982C892E982F872F762F652F542F52
S11320C0432F322F2227B85031F7BF9127C01B2E40
S11320D0BF91BB27220F331F441F551F661F771F55
S11320E0881F991F881C991CEE1FFF1FCC1FDD1F22
S11320F0AA1FBB1F8A149B04EC05FD05CE05DF0552
S1132100A007B10748F08A189B08EC09FD09CE091D
S1132110DF09A00BB10B21601A94E1F62EF49401AF
S1132120AF01BE01CD01000C08950F93083090F06B
S1132130982F872F762F652F542F432F322F222746
S11321400850F4CF220F331F441F551F661F771FFB
S1132150881F991F0A95B2F70F9108950E941810CD
S1132160A59F900DB49F900DA49F800D911D1124E7
S11321700895DC0128ED209334006C930895F894BD
S1052180FFCF8B
S11321821002040301020301000000018000550053
S1132192400033002B0025002000EB09EB073B0530
S11321A23B0341637469766520566F696365733ACC
S10521B2200007
S9030000FC
